:0C0000000C9457000C9400000C940000BD
:10000C000C9400000C9400000C9400000C94000064
:10001C000C9400000C9400000C9400000C94000054
:10002C000C9400000C9400000C9400000C94000044
:10003C000C9400000C9400000C9400000C9407032A
:10004C000C9400000C9400000C9400000C94000024
:10005C000C9400000C9400000C9400001027E80392
:10006C0064000A000100001000011000010025646A
:10007C002E25643A25642E25643A25752E253032BA
:10008C00753A25752E25303275200A0D00000100B9
:10009C002D4E414E00494E46000001006C039A0063
:1000AC000000F894EE27EFBBF1E0F5BFE5BF8DE063
:1000BC00A2E0BB27ED938A95E9F780E098E0A0E0F9
:1000CC00B1E0ED930197E9F7E6EAF0E085919591BF
:1000DC00009761F0A591B59105901590BF01F001C5
:1000EC0005900D920197E1F7FB01F0CFE0E0EEBB3C
:1000FC00EFEFEDBFE8E0EEBFC0E0D3E00C942E03D1
:10010C00AA93E881E03019F4E981EF7705C0A88162
:10011C00A13019F4E981E068E983E981EEBDEDB520
:10012C00E078E9F3EEB522960895E0971A935A9A7F
:10013C0042980E94CE06183168F40E94D506EA0F48
:10014C00FB1FFF93EF930E94DA06AF91BF91EC93E4
:10015C001F5FF1CF429A10E0173130F40E94DF0696
:10016C000E94ED061E5FF8CFE981FA81E09330031F
:10017C00F0933103EB81FC81E0933203F093330372
:10018C00ED81FE81E0933403F0933503EF81F88524
:10019C00E0933603F0933703E985FA85E09338034F
:1001AC00F0933903EB85FC85E0933A03F0933B0322
:1001BC00ED85FE85E0933C03F0933D03EF85F889D4
:1001CC00E0933E03F0933F03E989FA89E0934003FF
:1001DC00F0934103EB89FC89E0934203F0934303D2
:1001EC00ED89FE89E0934403F0934503EF89F88D84
:1001FC00E0934603F09347032DC10E9401070E9430
:10020C000E070E94D30A0E94A50AE0913203F091D6
:10021C0033030E9415070E941C070E940E070E94C0
:10022C002D077F936F93FF93EF930E9432070E94E9
:10023C000E070E942D07AF91BF918F919F910E9445
:10024C003C07E0913403F09135030E9415070E949E
:10025C004607E0934803F093490360934A03709375
:10026C004B030E9454070E945D07C6C10E949A0B63
:10027C002C970E9454070E947107E0914003F09163
:10028C0041030E9492070E9497070E949C070E94BC
:10029C00A307E0913E03F0913F030E94A8070E9440
:1002AC00B0077F936F93FF93EF93E0913C03F09132
:1002BC003D030E94C807AF91BF918F919F910E94FF
:1002CC0094090E94A307E0913A03F0913B030E942A
:1002DC00A8070E94D0070E9497070E94D5077F931A
:1002EC006F93FF93EF93E0913803F09139030E94E1
:1002FC00A807AF91BF918F919F910E94DC070E943C
:10030C00D5070E94E1070E94D0070E949C070E941B
:10031C00E607E0913603F09137030E94EB0729F4CE
:10032C00E0E0F0E060E070E067C10E94F907E09166
:10033C004603F09147030E942A080E942E080E944F
:10034C003308E0914403F09145030E942A080E946F
:10035C0097070E949C070E943A08E0914203F09193
:10036C0043030E9492070E94DC070E9441081AF482
:10037C00E0E00E94900B0E94500809F008F402C0C3
:10038C000E9459082FC1E0971A93429A5A980E94DA
:10039C00CE06183168F40E94D506EA0FFB1FFF93B6
:1003AC00EF930E94DA06AF91BF91EC931F5FF1CFF0
:1003BC005A9A10E0173130F40E94DF060E94ED06C5
:1003CC001E5FF8CFE981FA81E0934C03F0934D0363
:1003DC00EB81FC81E0934E03F0934F03ED81FE81A2
:1003EC00E0935003F0935103EF81F885E0935203AF
:1003FC00F0935303E985FA85E0935403F093550386
:10040C00EB85FC85E0935603F0935703ED85FE8551
:10041C00E0935803F0935903EF85F889E0935A035E
:10042C00F0935B03E989FA89E0935C03F0935D0335
:10043C00EB89FC89E0935E03F0935F03ED89FE8901
:10044C00E0936003F0936103EF89F88DE09362030E
:10045C00F09363031881E19608950E9401070E94AE
:10046C0060080E94D30A0E94A50AE0914E03F09105
:10047C004F030E9415070E941C070E9460080E94EF
:10048C002D077F936F93FF93EF930E9432070E9487
:10049C0060080E942D07AF91BF918F919F910E9490
:1004AC003C07E0915003F09151030E9415070E9404
:1004BC004607E0936403F0936503609366037093BF
:1004CC0067030E9467080E945D0796C00E949A0B02
:1004DC002C970E9467080E947107E0915C03F091D1
:1004EC005D030E9492070E9497070E949C070E943E
:1004FC00A307E0915A03F0915B030E94A8070E94A6
:10050C00B0077F936F93FF93EF93E0915803F091B3
:10051C0059030E94C807AF91BF918F919F910E9480
:10052C0094090E94A307E0915603F09157030E948F
:10053C00A8070E94D0070E9497070E94D5077F93B7
:10054C006F93FF93EF93E0915403F09155030E9446
:10055C00A807AF91BF918F919F910E94DC070E94D9
:10056C00D5070E94E1070E94D0070E949C070E94B9
:10057C00E607E0915203F09153030E94EB0729F434
:10058C00E0E0F0E060E070E037C00E94F907E09135
:10059C006203F09163030E942A080E942E080E94B5
:1005AC003308E0916003F09161030E942A080E94D5
:1005BC0097070E949C070E943A08E0915E03F09115
:1005CC005F030E9492070E94DC070E9441081AF404
:1005DC00E0E00E94900B0E94500809F008F402C061
:1005EC000E9459080E94810BA0E0B0E080E09FE3DC
:1005FC000E9494090E9421096096089596DDC3DE3D
:10060C000895AA93EA93EFB7EA93439AE091C60050
:10061C00E0936803A0916803A43251F4E0916B035A
:10062C00E03011F4E2E001C0E0E0E0936B030BC0BA
:10063C00A0916803AA3239F4E0916B03E03019F011
:10064C00E1E0E0936B03E991EFBFE991A991189573
:10065C00E0E8E0936100E0E0E0936100E6E0EAB9F5
:10066C005A9AE4B1E862E4B924982C98ECE0E7B922
:10067C00429A4398E0E0E093C500E7E6E093C400BB
:10068C00E8E9E093C100E6E0E093C200EDB5EE7F4F
:10069C00EDBDE2E5ECBDECB5EF7DECBDAFDF7894E4
:1006AC00A0916B03A13009F0E8C15A9A42980E94BC
:1006BC007008E0936903429A42980E947608429A25
:1006CC00A8E2B0E00E94EA0842980E9480087E2EC0
:1006DC000E94DA068E2E0E94DA065E2E0E94DA0640
:1006EC006E2E0E94DA063E2E0E94DA064E2E429A9A
:1006FC00E72D0E948608ECE00E94BB0A7F936F9363
:10070C00FF93EF93E82D0E948608E4E00E94BB0A59
:10071C00AF91BF918F919F910E94AA0A7F936F9383
:10072C00FF93EF93E52D0E948608E4E00E94C70A30
:10073C00AF91BF918F919F910E94AA0AE0930403FD
:10074C00F09305036093060370930703E62D0E9454
:10075C008608ECE00E94BB0A7F936F93FF93EF93A4
:10076C00E32D0E948608E4E00E94BB0AAF91BF9182
:10077C008F919F910E94AA0A7F936F93FF93EF939F
:10078C00E42D0E948608E4E00E94C70AAF91BF9155
:10079C008F919F910E94AA0AE0930003F0930103AA
:1007AC006093020370930303A0910003B0910103C3
:1007BC00809102039091030320DD0E94D80AE093FC
:1007CC000803F093090360930A0370930B03A09141
:1007DC000403B0910503809106039091070346DD55
:1007EC00E0930C03F0930D0360930E0370930F03CF
:1007FC000E948C080E943F0BE0932003F09321038E
:10080C000E948C080E94440BE0932203F093230374
:10081C000E9499080E943F0BE0932403F093250358
:10082C000E9499080E94440BE0932603F09327033F
:10083C00A0912203B0912303E0912203F0912303B2
:10084C003297E0932203F0932303E0912603F09177
:10085C0027033397E0932603F09327035A980E94BB
:10086C007008E0936A035A9A5A980E9476085A9A2A
:10087C00A8E2B0E00E94EA085A980E948008DE2E96
:10088C000E94DA06EE2E0E94DA06BE2E0E94DA06CE
:10089C00CE2E0E94DA069E2E0E94DA06AE2E5A9AB0
:1008AC00ED2D0E948608ECE00E94BB0A7F936F93AB
:1008BC00FF93EF93EE2D0E948608E4E00E94BB0AA2
:1008CC00AF91BF918F919F910E94AA0A7F936F93D2
:1008DC00FF93EF93EB2D0E948608E4E00E94C70A79
:1008EC00AF91BF918F919F910E94AA0AE09314033C
:1008FC00F09315036093160370931703EC2D0E946D
:10090C008608ECE00E94BB0A7F936F93FF93EF93F2
:10091C00E92D0E948608E4E00E94BB0AAF91BF91CA
:10092C008F919F910E94AA0A7F936F93FF93EF93ED
:10093C00EA2D0E948608E4E00E94C70AAF91BF919D
:10094C008F919F910E94AA0AE0931003F0931103D8
:10095C006093120370931303A0911003B0911103D1
:10096C00809112039091130378DD0E94D80AE093D2
:10097C001803F093190360931A0370931B03A0914F
:10098C001403B091150380911603909117039EDD0B
:10099C00E0931C03F0931D0360931E0370931F03DD
:1009AC000E94A6080E943F0BE0932803F0932903B2
:1009BC000E94A6080E94440BE0932A03F0932B0399
:1009CC000E94B3080E943F0BE0932C03F0932D037D
:1009DC000E94B3080E94440BE0932E03F0932F0364
:1009EC00A0912A03B0912B03E0912A03F0912B03E1
:1009FC003297E0932A03F0932B03E0912E03F091AE
:100A0C002F033397E0932E03F0932F03EAE7F0E0E4
:100A1C00FA93EA93E0912003F09121030E94C0081D
:100A2C00E0912203F09123030E94C008E091280377
:100A3C00F09129030E94C008E0912A03F0912B0346
:100A4C000E94C008E0912403F09125030E94C00885
:100A5C00E0912603F09127030E94C008E0912C033B
:100A6C00F0912D030E94C008E0912E03F0912F030A
:100A7C000E94C00880E24ED1A29612CEFFCFAA935C
:100A8C00E091C000E072E1F3E881E093C6002196AA
:100A9C000895BA93AA93AA81F2DFA881B981ED9146
:100AAC00FD913196FE93EE9323960895BA93AA93F3
:100ABC0026970E94B00B10E0AC85BD85E0E0F0E01D
:100ACC00ED93FC93EA89FB893196EA8BFB8B31978A
:100ADC00E4912E2FE03009F415C1E12FE03039F408
:100AEC00253211F411E002C00E94C5080AC1E130A0
:100AFC00A9F4253219F40E94C50802C112E040E0A5
:100B0C0000E02D3211F401E0FCC02B3211F44BE269
:100B1C00F8C0203211F440E2F4C002C0E23039F4E3
:100B2C0050E013E0203311F40068EBC003C0E33055
:100B3C0009F0E7C0203310F02A3308F007C0AAE010
:100B4C005A9F502DE22FE0535E0FDBC0E22FE336AD
:100B5C0049F40E94CC08E889F989A481AA930E94DF
:100B6C00D208CEC0E33741F40E94CC080E94D808CA
:100B7C000E94B5061E2F0AC0E03761F40E94CC0813
:100B8C000E94D8080E94C1061E2F086002600F77D1
:100B9C0030E034C0E43611F0E93611F4046002C0E0
:100BAC00E53731F4E8E6F0E0EE83FF8315E00CC0A6
:100BBC00E83511F4086003C0E83709F0A1C0E2E79A
:100BCC00F0E0EE83FF8314E002FF14C00E94CC0817
:100BDC000E94E208AB85AA233AF4EA85FB850E94C1
:100BEC00AF0AEA87FB874DE2403011F01F5F01C06E
:100BFC000B7F04C00E94CC080E94E20800FD11C0CB
:100C0C00151778F407FF08C002FF04C00B7F242FD0
:100C1C00115001C020E301C020E20E94C5085150D0
:100C2C00EFCF312F01FF17C03030A1F003FF06C00A
:100C3C00EE81FF812591EE83FF8305C0AE81BF81DC
:100C4C002D91AE83BF830E94C508503009F05150DE
:100C5C003150EACF4BC020E3EE81FF810E947D0B27
:100C6C00E887F987EE81FF813296EE83FF83E88572
:100C7C00F985AA85BB85AE17BF0750F02F5FA885F5
:100C8C00B985EA85FB85EA1BFB0BEA87FB87EFCF6F
:100C9C002A3328F003FF02C0295F01C0295D04FD3F
:100CAC001AC0213320F4A885B985119709F409C01D
:100CBC00531710F000FF01C013C020E207FF0BC058
:100CCC0020E3006102FF07C00B7F4A930E94D20809
:100CDC00503009F051500E94C508503009F0515065
:100CEC003150A885B985129708F0B5CF00FF08C020
:100CFC00503031F05150E0E2EA930E94D208F8CF24
:100D0C0010E0E0CEAC85BD850E94790B0E94B70B3C
:100D1C0064960895FF92F82E26971A930A93DE0193
:100D2C0014960E94970A8D01E0E0EC83ED83EE832C
:100D3C00EF83DE0118960E94970A0E94790BFA93B2
:100D4C00EA931A930A93EFE4F5E0FA93EA93DE013F
:100D5C001896ACDE198108812896FF900895BA93F5
:100D6C00AA93A991B991EE27FF276D91662311F0F3
:100D7C003196FBCF0895BA93AA93AA27BB27E99182
:100D8C00F9910590002011F01196FBCFFD0108950B
:100D9C00E8E8EA93A1E00E94860010E00895E12FB4
:100DAC00F0E0DE0159960895EFEFEA93A2E00C947F
:100DBC008600A12FB0E0E2E0F0E00E94150BDE010E
:100DCC001196EE0FFF1FEA0FFB1FBF01E8CFAE0F0E
:100DDC00BF1F0C901124E12FF0E03196DE015996E3
:100DEC00AE0FBF1FEC91FE2FE0E0E029F129DB01F3
:100DFC00ED93FC9308950E949A0B2C97AC85BD85BE
:100E0C008E859F85E3E00E94C70ADF01CB01089520
:100E1C00E0913003F09131036627772708950E9403
:100E2C00D80A0E94FD0ADF01CB010895EBE00E9475
:100E3C00C70AE887F9876A877B87AC85BD858E856D
:100E4C009F85E4E00E94C70ADF01CB0108950E9450
:100E5C009F0B0E94A00A0895AC85BD858E859F8549
:100E6C00E4E00E94C70ADF01CB0108950E94FD0A4D
:100E7C00DF01CB01ECE00E94C70ADF01CB01089532
:100E8C00EEE00E94C70AEC83FD836E837F83A88506
:100E9C00B9858A859B850E949B0A0895E091480339
:100EAC00F091490360914A0370914B030895A5E0BA
:100EBC00B0E080E090E00E94FD0AE058FF4F6F4FD9
:100ECC007F4FDF01CB01E8E00E94C70A0E948B0B29
:100EDC00E881F98108950E945A09DF01CB01E0E015
:100EEC00F0E060E070E40E94320ADF01CB01E0E048
:100EFC00F0E06AE777E40E949F0B0E948D09E88777
:100F0C00F9876A877B87A885B9858A859B850E9426
:100F1C00E409DF01CB0108950E94D80A0E945A0906
:100F2C0008950E94E409DF01CB010895E0E0F0E0B0
:100F3C0060E077E40E94320A0895EC83FD836E83AF
:100F4C007F830895E9DFA885B9858A859B850E94F2
:100F5C00E4090895A0E0B0E080E090E40E94E40988
:100F6C00AC81BD818E819F810E949409E6DFAC81AA
:100F7C00BD818E819F81E0E0F0E060E870E40E942A
:100F8C00320A0895C9DFA0E0B0E080E897E40E943F
:100F9C00E4090895A885B9858A859B850895E0E0C4
:100FAC00F0E060E079E40E94320A08950E9494090E
:100FBC00DF01CB010895E887F9876A877B8708955D
:100FCC00A0E0B0E080E89FE3F1CF662777270E948E
:100FDC005A090E94E409EFDFE885F9856A857B856B
:100FEC000E94AC0B0895EC85FD856E857F850E9473
:100FFC005A09A0E0B0E080E899E40E949F0B0E949F
:10100C008D090E948B0BAC81BD818E819F81E0E0AC
:10101C00F0E060E875E40E94320A0E94860B0E94A0
:10102C009F0B0E948D09A0E0B0E583EC95E40E9433
:10103C00E409DF01CB01E885F9856A857B850E948F
:10104C00320A0E948B0B089567DF0E94860B08956D
:10105C000E94E4090E94860B64CFE0E0F0E060E0BF
:10106C007FE40E94320AA7CF68DFEC81FD816E819C
:10107C007F8190DF9BCFE0E0F0E060E871E40E94BC
:10108C00320A0E94860B0E9494090E948B0BAB8142
:10109C00AA2308950E94860BE0E0F0E060E87FE46C
:1010AC000E94770A0895E0E0F0E060E87FE40E9497
:1010BC008B0B0895E0914C03F0914D036627772735
:1010CC000895E0916403F09165036091660370915B
:1010DC0067030895E0EDEA93A1E00E94860064CED8
:1010EC00E4EFEA93A0E00E948600E5E2EA93A0E038
:1010FC000C948600E7EFEA93A1E00E94860054CEA0
:10110C00F0E00E94D80ADF01CB010895A0910803FA
:10111C00B091090380910A0390910B03E4E6F0E08F
:10112C0060E070E00895A0910C03B0910D038091E4
:10113C000E0390910F03E4E6F0E060E070E0089598
:10114C00A0911803B091190380911A0390911B037D
:10115C00E4E6F0E060E070E00895A0911C03B0912B
:10116C001D0380911E0390911F03E4E6F0E060E004
:10117C0070E00895662777270E94950B08952A93AF
:10118C00AD85BE85EF85F88909950895E889F989BB
:10119C003497E88BF98B0895AD85BE85EF85F8897A
:1011AC0009950895A889B98914960E94790BEE8344
:1011BC00FF83AE81BF810895A889B98914960E94D6
:1011CC00790BEA87FB870895109639F0A89580EA89
:1011DC009FE00197F1F71197C9F70895552342F451
:1011EC00503811F4E0FF04C03196691F791F6BF081
:1011FC0050E8572711F45F93CFC05F3F31F0660F73
:10120C00000C57956795752F08955F9300200AF091
:10121C00CFC0C8C050E8192E1522880F991F9527EA
:10122C00550F879550E8072E0522660F771F7527F7
:10123C00550F67950895689401C0E8945F93F2DFA9
:10124C00703818F07F3F08F4A7C056E1571BAAF47A
:10125C00519558300EF4593030F0EFEFFFEF6FEF3F
:10126C007FE777F91AC077275523B9F0EE0FFF1FE8
:10127C00661F771F5A95D1F710C07727583028F082
:10128C00EF2FF62F672F5850F9CF552331F0769565
:10129C006795F795E7955A95D1F700200AF45DD13B
:1012AC005F910895689401C0E89430976040704055
:1012BC00B1F0002426F0772312F400944ED1172EAF
:1012CC007EE1112032F07A95EE0FFF1F661F111C84
:1012DC00F9CFEF2FF62F612D5F938ADF5F91089581
:1012EC004F93AF01FD01DA01AB01BC01CA01402DE6
:1012FC00012C142E4F910895EA0FFB1F681F0895BF
:10130C00E095F0956095EF5FFF4F6F4F08955F93F9
:10131C0081DF903871F150E8152604C05F937ADFB5
:10132C00903839F1703821F1572F591B2BF112F4E9
:10133C00D7DFFACF583118F0AA27BB2788275830A7
:10134C0028F0AB2FB82F88275850F9CF552329F008
:10135C008695B795A7955A95D9F7502D512572F0CA
:10136C00CBDF38F46795F795E795739513F420C0A8
:10137C00B7DF3EDF5F910895D8F7FBCFEA1BFB0B7D
:10138C00680B51F010F40094BBDF662392F3EE0F60
:10139C00FF1F661F7A95CBF7EE27FF276627772767
:1013AC005F910895EFEFFFEF6FE77FEF5F91089587
:1013BC00EFEFFFEF6FE77FE75F9108955F932ADF11
:1013CC00703851F3903841F301240894791F23F4B9
:1013DC001CF300203AF3ECCF0F921F932F933F9303
:1013EC004F93112722279927689FA0018F9F302D9B
:1013FC00410D591F6B9F300D411D591F8E9F27D0DA
:10140C00BF9F25D06A9F23D0BE9F1DD0AF9F1BD0FE
:10141C00AE9F110D291F391F491F591FE32FF42FA0
:10142C00652F522F4F913F912F911F910F90662353
:10143C002AF0550FEE1FFF1F661F02C073954BF26B
:10144C00CDDE5F910895100D211D391F02C0200DB6
:10145C00311D491F591F08955F93DCDE703821F44C
:10146C0011200AF49FCFA4CF903809F495CF012412
:10147C000894970B1BF4D4F30020F3CF792F1F9310
:10148C002F933F934F93112411272227332744275F
:10149C00552790E2AE17BF078607410730F0AE1B09
:1014AC00BF0B860B410B089401C08894551F221F5B
:1014BC00331F111CAA1FBB1F881F441F9A9551F77D
:1014CC00F901612D4F913F912F911F91662332F0BD
:1014DC00550FEE1FFF1F661F7A9543F27FDE5F915B
:1014EC00089599239AF0772342F0971748F029F43E
:1014FC00AE17BF07860720F031F0989488940895B2
:10150C009894089408951894889408957723C2F7B2
:10151C00971798F3A9F7EA17FB07680788F399F36D
:10152C00ECCF0024AF0DB01D0895EA0FFB1F681F10
:10153C00791F0895EA1BFB0B680B790B0895AE1B02
:10154C00BF0B860B970B0895EA2BFB2B682B792B83
:10155C000895F195E195F0400895F095609570959A
:10156C00E195FF4F6F4F7F4F0895EE230E2EFD0137
:10157C00BC0131F0EE0FFF1F661F771F0A94D1F7E5
:10158C000895EE230E2EFD01BC0131F07595679583
:10159C00F795E7950A94D1F70895EE0FFF1F661F94
:1015AC00771F08956F2F660F660B762F08957A9F1D
:1015BC00702D6B9F700DF89F700DE99F700D6A9FD9
:1015CC00602D710DFB9F600D711DE89F600D711DED
:1015DC008827FA9FF02D610D781FEB9FF00D611D90
:1015EC00781FEA9FE02DF10D681F781F089568D0D1
:1015FC00DEDF0EF4B2DF08950024112490E1AA0F6F
:10160C00BB1F001C111C0E1A1F0A18F40E0E1F1EF5
:10161C0001C0A1609A9599F7FD01D001089542D0BF
:10162C00EBDF0EF496DF08953F934F935F93002406
:10163C0011244427552730E2AA0FBB1F881F991F7E
:10164C00001C111C441F551F0E1A1F0A460B570B6A
:10165C0028F40E0E1F1E461F571F01C0A1603A959D
:10166C0059F7FD01BC01D001CA015F914F913F9127
:10167C00089526D0D9DF0EF470DF0895E89497FF13
:10168C0009C0A095B09580959095AF5FBF4F8F4FD7
:10169C009F4F689477FD61DFC7DFFD01BC010EF43D
:1016AC005CDF0895E894F7FF02C053DF6894B7FF3E
:1016BC0006C0A095B095119600F8039400FA089511
:1016CC00E89477FF02C049DF689497FF0BC00024B1
:1016DC00A095B095809590951196801D901D00F861
:1016EC00039400FA0895ED91FC91119708950590DB
:1016FC00F491E02D0895E881F9816A817B81089548
:10170C00A881B9818A819B810895E883F9836A83D2
:10171C007B830895E883E983EA83EB8308957A93C6
:10172C006A93FA93EA9308959A938A93BA93AA9335
:10173C000895182E862F612D192E972F712D1B2E83
:10174C00BF2FF12D1A2EAE2FE12D0895309760404A
:10175C00704008955A934A933A932A931A930A9392
:10176C0008955D814C813B812A81198108810895FE
:00000001FF
